{
  "_format": "hh-sol-artifact-1",
  "contractName": "ROMB",
  "sourceName": "contracts/romb.sol",
  "abi": [
    {
      "inputs": [],
      "stateMutability": "nonpayable",
      "type": "constructor"
    },
    {
      "anonymous": false,
      "inputs": [
        {
          "indexed": false,
          "internalType": "address",
          "name": "previousAdmin",
          "type": "address"
        },
        {
          "indexed": false,
          "internalType": "address",
          "name": "newAdmin",
          "type": "address"
        }
      ],
      "name": "AdminChanged",
      "type": "event"
    },
    {
      "anonymous": false,
      "inputs": [
        {
          "indexed": true,
          "internalType": "address",
          "name": "owner",
          "type": "address"
        },
        {
          "indexed": true,
          "internalType": "address",
          "name": "spender",
          "type": "address"
        },
        {
          "indexed": false,
          "internalType": "uint256",
          "name": "value",
          "type": "uint256"
        }
      ],
      "name": "Approval",
      "type": "event"
    },
    {
      "anonymous": false,
      "inputs": [
        {
          "indexed": true,
          "internalType": "address",
          "name": "beacon",
          "type": "address"
        }
      ],
      "name": "BeaconUpgraded",
      "type": "event"
    },
    {
      "anonymous": false,
      "inputs": [
        {
          "indexed": true,
          "internalType": "address",
          "name": "delegator",
          "type": "address"
        },
        {
          "indexed": true,
          "internalType": "address",
          "name": "fromDelegate",
          "type": "address"
        },
        {
          "indexed": true,
          "internalType": "address",
          "name": "toDelegate",
          "type": "address"
        }
      ],
      "name": "DelegateChanged",
      "type": "event"
    },
    {
      "anonymous": false,
      "inputs": [
        {
          "indexed": true,
          "internalType": "address",
          "name": "delegate",
          "type": "address"
        },
        {
          "indexed": false,
          "internalType": "uint256",
          "name": "previousBalance",
          "type": "uint256"
        },
        {
          "indexed": false,
          "internalType": "uint256",
          "name": "newBalance",
          "type": "uint256"
        }
      ],
      "name": "DelegateVotesChanged",
      "type": "event"
    },
    {
      "anonymous": false,
      "inputs": [
        {
          "indexed": false,
          "internalType": "uint8",
          "name": "version",
          "type": "uint8"
        }
      ],
      "name": "Initialized",
      "type": "event"
    },
    {
      "anonymous": false,
      "inputs": [
        {
          "indexed": true,
          "internalType": "address",
          "name": "previousOwner",
          "type": "address"
        },
        {
          "indexed": true,
          "internalType": "address",
          "name": "newOwner",
          "type": "address"
        }
      ],
      "name": "OwnershipTransferred",
      "type": "event"
    },
    {
      "anonymous": false,
      "inputs": [
        {
          "indexed": false,
          "internalType": "address",
          "name": "account",
          "type": "address"
        }
      ],
      "name": "Paused",
      "type": "event"
    },
    {
      "anonymous": false,
      "inputs": [
        {
          "indexed": true,
          "internalType": "address",
          "name": "from",
          "type": "address"
        },
        {
          "indexed": true,
          "internalType": "address",
          "name": "to",
          "type": "address"
        },
        {
          "indexed": false,
          "internalType": "uint256",
          "name": "value",
          "type": "uint256"
        }
      ],
      "name": "Transfer",
      "type": "event"
    },
    {
      "anonymous": false,
      "inputs": [
        {
          "indexed": false,
          "internalType": "address",
          "name": "account",
          "type": "address"
        }
      ],
      "name": "Unpaused",
      "type": "event"
    },
    {
      "anonymous": false,
      "inputs": [
        {
          "indexed": true,
          "internalType": "address",
          "name": "implementation",
          "type": "address"
        }
      ],
      "name": "Upgraded",
      "type": "event"
    },
    {
      "inputs": [],
      "name": "DOMAIN_SEPARATOR",
      "outputs": [
        {
          "internalType": "bytes32",
          "name": "",
          "type": "bytes32"
        }
      ],
      "stateMutability": "view",
      "type": "function"
    },
    {
      "inputs": [
        {
          "internalType": "address",
          "name": "owner",
          "type": "address"
        },
        {
          "internalType": "address",
          "name": "spender",
          "type": "address"
        }
      ],
      "name": "allowance",
      "outputs": [
        {
          "internalType": "uint256",
          "name": "",
          "type": "uint256"
        }
      ],
      "stateMutability": "view",
      "type": "function"
    },
    {
      "inputs": [
        {
          "internalType": "address",
          "name": "spender",
          "type": "address"
        },
        {
          "internalType": "uint256",
          "name": "amount",
          "type": "uint256"
        }
      ],
      "name": "approve",
      "outputs": [
        {
          "internalType": "bool",
          "name": "",
          "type": "bool"
        }
      ],
      "stateMutability": "nonpayable",
      "type": "function"
    },
    {
      "inputs": [
        {
          "internalType": "address",
          "name": "account",
          "type": "address"
        }
      ],
      "name": "balanceOf",
      "outputs": [
        {
          "internalType": "uint256",
          "name": "",
          "type": "uint256"
        }
      ],
      "stateMutability": "view",
      "type": "function"
    },
    {
      "inputs": [
        {
          "internalType": "address",
          "name": "from",
          "type": "address"
        },
        {
          "internalType": "uint256",
          "name": "amount",
          "type": "uint256"
        }
      ],
      "name": "burn",
      "outputs": [],
      "stateMutability": "nonpayable",
      "type": "function"
    },
    {
      "inputs": [],
      "name": "cap",
      "outputs": [
        {
          "internalType": "uint256",
          "name": "",
          "type": "uint256"
        }
      ],
      "stateMutability": "view",
      "type": "function"
    },
    {
      "inputs": [
        {
          "internalType": "address",
          "name": "account",
          "type": "address"
        },
        {
          "internalType": "uint32",
          "name": "pos",
          "type": "uint32"
        }
      ],
      "name": "checkpoints",
      "outputs": [
        {
          "components": [
            {
              "internalType": "uint32",
              "name": "fromBlock",
              "type": "uint32"
            },
            {
              "internalType": "uint224",
              "name": "votes",
              "type": "uint224"
            }
          ],
          "internalType": "struct ERC20VotesUpgradeable.Checkpoint",
          "name": "",
          "type": "tuple"
        }
      ],
      "stateMutability": "view",
      "type": "function"
    },
    {
      "inputs": [],
      "name": "decimals",
      "outputs": [
        {
          "internalType": "uint8",
          "name": "",
          "type": "uint8"
        }
      ],
      "stateMutability": "view",
      "type": "function"
    },
    {
      "inputs": [
        {
          "internalType": "address",
          "name": "spender",
          "type": "address"
        },
        {
          "internalType": "uint256",
          "name": "subtractedValue",
          "type": "uint256"
        }
      ],
      "name": "decreaseAllowance",
      "outputs": [
        {
          "internalType": "bool",
          "name": "",
          "type": "bool"
        }
      ],
      "stateMutability": "nonpayable",
      "type": "function"
    },
    {
      "inputs": [
        {
          "internalType": "address",
          "name": "delegatee",
          "type": "address"
        }
      ],
      "name": "delegate",
      "outputs": [],
      "stateMutability": "nonpayable",
      "type": "function"
    },
    {
      "inputs": [
        {
          "internalType": "address",
          "name": "delegatee",
          "type": "address"
        },
        {
          "internalType": "uint256",
          "name": "nonce",
          "type": "uint256"
        },
        {
          "internalType": "uint256",
          "name": "expiry",
          "type": "uint256"
        },
        {
          "internalType": "uint8",
          "name": "v",
          "type": "uint8"
        },
        {
          "internalType": "bytes32",
          "name": "r",
          "type": "bytes32"
        },
        {
          "internalType": "bytes32",
          "name": "s",
          "type": "bytes32"
        }
      ],
      "name": "delegateBySig",
      "outputs": [],
      "stateMutability": "nonpayable",
      "type": "function"
    },
    {
      "inputs": [
        {
          "internalType": "address",
          "name": "account",
          "type": "address"
        }
      ],
      "name": "delegates",
      "outputs": [
        {
          "internalType": "address",
          "name": "",
          "type": "address"
        }
      ],
      "stateMutability": "view",
      "type": "function"
    },
    {
      "inputs": [
        {
          "internalType": "uint256",
          "name": "blockNumber",
          "type": "uint256"
        }
      ],
      "name": "getPastTotalSupply",
      "outputs": [
        {
          "internalType": "uint256",
          "name": "",
          "type": "uint256"
        }
      ],
      "stateMutability": "view",
      "type": "function"
    },
    {
      "inputs": [
        {
          "internalType": "address",
          "name": "account",
          "type": "address"
        },
        {
          "internalType": "uint256",
          "name": "blockNumber",
          "type": "uint256"
        }
      ],
      "name": "getPastVotes",
      "outputs": [
        {
          "internalType": "uint256",
          "name": "",
          "type": "uint256"
        }
      ],
      "stateMutability": "view",
      "type": "function"
    },
    {
      "inputs": [
        {
          "internalType": "address",
          "name": "account",
          "type": "address"
        }
      ],
      "name": "getVotes",
      "outputs": [
        {
          "internalType": "uint256",
          "name": "",
          "type": "uint256"
        }
      ],
      "stateMutability": "view",
      "type": "function"
    },
    {
      "inputs": [
        {
          "internalType": "address",
          "name": "spender",
          "type": "address"
        },
        {
          "internalType": "uint256",
          "name": "addedValue",
          "type": "uint256"
        }
      ],
      "name": "increaseAllowance",
      "outputs": [
        {
          "internalType": "bool",
          "name": "",
          "type": "bool"
        }
      ],
      "stateMutability": "nonpayable",
      "type": "function"
    },
    {
      "inputs": [],
      "name": "initialize",
      "outputs": [],
      "stateMutability": "nonpayable",
      "type": "function"
    },
    {
      "inputs": [],
      "name": "name",
      "outputs": [
        {
          "internalType": "string",
          "name": "",
          "type": "string"
        }
      ],
      "stateMutability": "view",
      "type": "function"
    },
    {
      "inputs": [
        {
          "internalType": "address",
          "name": "owner",
          "type": "address"
        }
      ],
      "name": "nonces",
      "outputs": [
        {
          "internalType": "uint256",
          "name": "",
          "type": "uint256"
        }
      ],
      "stateMutability": "view",
      "type": "function"
    },
    {
      "inputs": [
        {
          "internalType": "address",
          "name": "account",
          "type": "address"
        }
      ],
      "name": "numCheckpoints",
      "outputs": [
        {
          "internalType": "uint32",
          "name": "",
          "type": "uint32"
        }
      ],
      "stateMutability": "view",
      "type": "function"
    },
    {
      "inputs": [],
      "name": "owner",
      "outputs": [
        {
          "internalType": "address",
          "name": "",
          "type": "address"
        }
      ],
      "stateMutability": "view",
      "type": "function"
    },
    {
      "inputs": [],
      "name": "pause",
      "outputs": [],
      "stateMutability": "nonpayable",
      "type": "function"
    },
    {
      "inputs": [],
      "name": "paused",
      "outputs": [
        {
          "internalType": "bool",
          "name": "",
          "type": "bool"
        }
      ],
      "stateMutability": "view",
      "type": "function"
    },
    {
      "inputs": [
        {
          "internalType": "address",
          "name": "owner",
          "type": "address"
        },
        {
          "internalType": "address",
          "name": "spender",
          "type": "address"
        },
        {
          "internalType": "uint256",
          "name": "value",
          "type": "uint256"
        },
        {
          "internalType": "uint256",
          "name": "deadline",
          "type": "uint256"
        },
        {
          "internalType": "uint8",
          "name": "v",
          "type": "uint8"
        },
        {
          "internalType": "bytes32",
          "name": "r",
          "type": "bytes32"
        },
        {
          "internalType": "bytes32",
          "name": "s",
          "type": "bytes32"
        }
      ],
      "name": "permit",
      "outputs": [],
      "stateMutability": "nonpayable",
      "type": "function"
    },
    {
      "inputs": [],
      "name": "proxiableUUID",
      "outputs": [
        {
          "internalType": "bytes32",
          "name": "",
          "type": "bytes32"
        }
      ],
      "stateMutability": "view",
      "type": "function"
    },
    {
      "inputs": [],
      "name": "renounceOwnership",
      "outputs": [],
      "stateMutability": "nonpayable",
      "type": "function"
    },
    {
      "inputs": [],
      "name": "symbol",
      "outputs": [
        {
          "internalType": "string",
          "name": "",
          "type": "string"
        }
      ],
      "stateMutability": "view",
      "type": "function"
    },
    {
      "inputs": [],
      "name": "totalSupply",
      "outputs": [
        {
          "internalType": "uint256",
          "name": "",
          "type": "uint256"
        }
      ],
      "stateMutability": "view",
      "type": "function"
    },
    {
      "inputs": [
        {
          "internalType": "address",
          "name": "to",
          "type": "address"
        },
        {
          "internalType": "uint256",
          "name": "amount",
          "type": "uint256"
        }
      ],
      "name": "transfer",
      "outputs": [
        {
          "internalType": "bool",
          "name": "",
          "type": "bool"
        }
      ],
      "stateMutability": "nonpayable",
      "type": "function"
    },
    {
      "inputs": [
        {
          "internalType": "address",
          "name": "from",
          "type": "address"
        },
        {
          "internalType": "address",
          "name": "to",
          "type": "address"
        },
        {
          "internalType": "uint256",
          "name": "amount",
          "type": "uint256"
        }
      ],
      "name": "transferFrom",
      "outputs": [
        {
          "internalType": "bool",
          "name": "",
          "type": "bool"
        }
      ],
      "stateMutability": "nonpayable",
      "type": "function"
    },
    {
      "inputs": [
        {
          "internalType": "address",
          "name": "newOwner",
          "type": "address"
        }
      ],
      "name": "transferOwnership",
      "outputs": [],
      "stateMutability": "nonpayable",
      "type": "function"
    },
    {
      "inputs": [],
      "name": "unpause",
      "outputs": [],
      "stateMutability": "nonpayable",
      "type": "function"
    },
    {
      "inputs": [
        {
          "internalType": "address",
          "name": "newImplementation",
          "type": "address"
        }
      ],
      "name": "upgradeTo",
      "outputs": [],
      "stateMutability": "nonpayable",
      "type": "function"
    },
    {
      "inputs": [
        {
          "internalType": "address",
          "name": "newImplementation",
          "type": "address"
        },
        {
          "internalType": "bytes",
          "name": "data",
          "type": "bytes"
        }
      ],
      "name": "upgradeToAndCall",
      "outputs": [],
      "stateMutability": "payable",
      "type": "function"
    }
  ],
  "bytecode": "0x60a0604052306080523480156200001557600080fd5b506200002062000026565b620000e8565b600054610100900460ff1615620000935760405162461bcd60e51b815260206004820152602760248201527f496e697469616c697a61626c653a20636f6e747261637420697320696e697469604482015266616c697a696e6760c81b606482015260840160405180910390fd5b60005460ff9081161015620000e6576000805460ff191660ff9081179091556040519081527f7f26b83ff96e1f2b6a682f133852f6798a09c465da95921460cefb38474024989060200160405180910390a15b565b608051613156620001206000396000818161075b015281816107a4015281816108eb0152818161092b01526109be01526131566000f3fe6080604052600436106101f95760003560e01c806370a082311161010d5780639ab24eb0116100a0578063c3cda5201161006f578063c3cda520146105a5578063d505accf146105c5578063dd62ed3e146105e5578063f1127ed814610605578063f2fde38b1461064f57600080fd5b80639ab24eb0146105255780639dc29fac14610545578063a457c2d714610565578063a9059cbb1461058557600080fd5b80638456cb59116100dc5780638456cb59146104bc5780638da5cb5b146104d15780638e539e8c146104f057806395d89b411461051057600080fd5b806370a082311461043c578063715018a6146104725780637ecebe00146104875780638129fc1c146104a757600080fd5b8063395093511161019057806352d1902d1161015f57806352d1902d14610369578063587cde1e1461037e5780635c19a95c146103cf5780635c975abb146103ef5780636fcfff451461040757600080fd5b806339509351146103015780633a46b1a8146103215780633f4ba83a146103415780634f1ef2861461035657600080fd5b8063313ce567116101cc578063313ce56714610298578063355274ea146102b45780633644e515146102ca5780633659cfe6146102df57600080fd5b806306fdde03146101fe578063095ea7b31461022957806318160ddd1461025957806323b872dd14610278575b600080fd5b34801561020a57600080fd5b5061021361066f565b6040516102209190612ae0565b60405180910390f35b34801561023557600080fd5b50610249610244366004612b2f565b610701565b6040519015158152602001610220565b34801561026557600080fd5b506035545b604051908152602001610220565b34801561028457600080fd5b50610249610293366004612b59565b61071b565b3480156102a457600080fd5b5060405160128152602001610220565b3480156102c057600080fd5b506101305461026a565b3480156102d657600080fd5b5061026a610741565b3480156102eb57600080fd5b506102ff6102fa366004612b95565b610750565b005b34801561030d57600080fd5b5061024961031c366004612b2f565b610839565b34801561032d57600080fd5b5061026a61033c366004612b2f565b61085b565b34801561034d57600080fd5b506102ff6108ce565b6102ff610364366004612bc6565b6108e0565b34801561037557600080fd5b5061026a6109b1565b34801561038a57600080fd5b506103b7610399366004612b95565b6001600160a01b03908116600090815260cc60205260409020541690565b6040516001600160a01b039091168152602001610220565b3480156103db57600080fd5b506102ff6103ea366004612b95565b610a64565b3480156103fb57600080fd5b5060fe5460ff16610249565b34801561041357600080fd5b50610427610422366004612b95565b610a6e565b60405163ffffffff9091168152602001610220565b34801561044857600080fd5b5061026a610457366004612b95565b6001600160a01b031660009081526033602052604090205490565b34801561047e57600080fd5b506102ff610a90565b34801561049357600080fd5b5061026a6104a2366004612b95565b610aa2565b3480156104b357600080fd5b506102ff610ac0565b3480156104c857600080fd5b506102ff610cb6565b3480156104dd57600080fd5b50610163546001600160a01b03166103b7565b3480156104fc57600080fd5b5061026a61050b366004612c88565b610cc6565b34801561051c57600080fd5b50610213610d22565b34801561053157600080fd5b5061026a610540366004612b95565b610d31565b34801561055157600080fd5b506102ff610560366004612b2f565b610db8565b34801561057157600080fd5b50610249610580366004612b2f565b610dca565b34801561059157600080fd5b506102496105a0366004612b2f565b610e50565b3480156105b157600080fd5b506102ff6105c0366004612cb2565b610e5e565b3480156105d157600080fd5b506102ff6105e0366004612d0a565b610f94565b3480156105f157600080fd5b5061026a610600366004612d74565b6110f8565b34801561061157600080fd5b50610625610620366004612da7565b611123565b60408051825163ffffffff1681526020928301516001600160e01b03169281019290925201610220565b34801561065b57600080fd5b506102ff61066a366004612b95565b6111a7565b60606036805461067e90612de7565b80601f01602080910402602001604051908101604052809291908181526020018280546106aa90612de7565b80156106f75780601f106106cc576101008083540402835291602001916106f7565b820191906000526020600020905b8154815290600101906020018083116106da57829003601f168201915b5050505050905090565b60003361070f81858561121d565b60019150505b92915050565b600033610729858285611341565b6107348585856113bb565b60019150505b9392505050565b600061074b61159a565b905090565b306001600160a01b037f00000000000000000000000000000000000000000000000000000000000000001614156107a25760405162461bcd60e51b815260040161079990612e1c565b60405180910390fd5b7f00000000000000000000000000000000000000000000000000000000000000006001600160a01b03166107eb6000805160206130da833981519152546001600160a01b031690565b6001600160a01b0316146108115760405162461bcd60e51b815260040161079990612e68565b61081a81611615565b604080516000808252602082019092526108369183919061161d565b50565b60003361070f81858561084c83836110f8565b6108569190612eca565b61121d565b60004382106108ac5760405162461bcd60e51b815260206004820152601f60248201527f4552433230566f7465733a20626c6f636b206e6f7420796574206d696e6564006044820152606401610799565b6001600160a01b038316600090815260cd6020526040902061073a908361179c565b6108d6611859565b6108de6118b4565b565b306001600160a01b037f00000000000000000000000000000000000000000000000000000000000000001614156109295760405162461bcd60e51b815260040161079990612e1c565b7f00000000000000000000000000000000000000000000000000000000000000006001600160a01b03166109726000805160206130da833981519152546001600160a01b031690565b6001600160a01b0316146109985760405162461bcd60e51b815260040161079990612e68565b6109a182611615565b6109ad8282600161161d565b5050565b6000306001600160a01b037f00000000000000000000000000000000000000000000000000000000000000001614610a515760405162461bcd60e51b815260206004820152603860248201527f555550535570677261646561626c653a206d757374206e6f742062652063616c60448201527f6c6564207468726f7567682064656c656761746563616c6c00000000000000006064820152608401610799565b506000805160206130da83398151915290565b6108363382611906565b6001600160a01b038116600090815260cd602052604081205461071590611980565b610a98611859565b6108de60006119e9565b6001600160a01b038116600090815260996020526040812054610715565b600054610100900460ff1615808015610ae05750600054600160ff909116105b80610afa5750303b158015610afa575060005460ff166001145b610b5d5760405162461bcd60e51b815260206004820152602e60248201527f496e697469616c697a61626c653a20636f6e747261637420697320616c72656160448201526d191e481a5b9a5d1a585b1a5e995960921b6064820152608401610799565b6000805460ff191660011790558015610b80576000805461ff0019166101001790555b610bd3604051806040016040528060158152602001742927a6a11023b7bb32b93730b731b2902a37b5b2b760591b815250604051806040016040528060048152602001632927a6a160e11b815250611a3c565b610c09604051806040016040528060158152602001742927a6a11023b7bb32b93730b731b2902a37b5b2b760591b815250611a6d565b610c11611ab7565b610c19611ade565b610c3b610c286012600a612fc6565b610c3690630bebc200612fd5565b611b0d565b610c43611b3d565b610c4b611ab7565b610c6e33610c5b6012600a612fc6565b610c6990630bebc200612fd5565b611b6c565b8015610836576000805461ff0019169055604051600181527f7f26b83ff96e1f2b6a682f133852f6798a09c465da95921460cefb38474024989060200160405180910390a150565b610cbe611859565b6108de611b76565b6000438210610d175760405162461bcd60e51b815260206004820152601f60248201527f4552433230566f7465733a20626c6f636b206e6f7420796574206d696e6564006044820152606401610799565b61071560ce8361179c565b60606037805461067e90612de7565b6001600160a01b038116600090815260cd60205260408120548015610da5576001600160a01b038316600090815260cd60205260409020610d73600183612ff4565b81548110610d8357610d8361300b565b60009182526020909120015464010000000090046001600160e01b0316610da8565b60005b6001600160e01b03169392505050565b610dc0611859565b6109ad8282611bb3565b60003381610dd882866110f8565b905083811015610e385760405162461bcd60e51b815260206004820152602560248201527f45524332303a2064656372656173656420616c6c6f77616e63652062656c6f77604482015264207a65726f60d81b6064820152608401610799565b610e45828686840361121d565b506001949350505050565b60003361070f8185856113bb565b83421115610eae5760405162461bcd60e51b815260206004820152601d60248201527f4552433230566f7465733a207369676e617475726520657870697265640000006044820152606401610799565b604080517fe48329057bfd03d55e49b547132e39cffd9c1820ad7b9d4c5307691425d15adf60208201526001600160a01b038816918101919091526060810186905260808101859052600090610f2890610f209060a00160405160208183030381529060405280519060200120611bbd565b858585611c0b565b9050610f3381611c33565b8614610f815760405162461bcd60e51b815260206004820152601960248201527f4552433230566f7465733a20696e76616c6964206e6f6e6365000000000000006044820152606401610799565b610f8b8188611906565b50505050505050565b83421115610fe45760405162461bcd60e51b815260206004820152601d60248201527f45524332305065726d69743a206578706972656420646561646c696e650000006044820152606401610799565b60007f6e71edae12b1b97f4d1f60370fef10105fa2faae0126114a169c64845d6126c98888886110138c611c33565b6040805160208101969096526001600160a01b0394851690860152929091166060840152608083015260a082015260c0810186905260e001604051602081830303815290604052805190602001209050600061106e82611bbd565b9050600061107e82878787611c0b565b9050896001600160a01b0316816001600160a01b0316146110e15760405162461bcd60e51b815260206004820152601e60248201527f45524332305065726d69743a20696e76616c6964207369676e617475726500006044820152606401610799565b6110ec8a8a8a61121d565b50505050505050505050565b6001600160a01b03918216600090815260346020908152604080832093909416825291909152205490565b60408051808201909152600080825260208201526001600160a01b038316600090815260cd60205260409020805463ffffffff84169081106111675761116761300b565b60009182526020918290206040805180820190915291015463ffffffff8116825264010000000090046001600160e01b0316918101919091529392505050565b6111af611859565b6001600160a01b0381166112145760405162461bcd60e51b815260206004820152602660248201527f4f776e61626c653a206e6577206f776e657220697320746865207a65726f206160448201526564647265737360d01b6064820152608401610799565b610836816119e9565b6001600160a01b03831661127f5760405162461bcd60e51b8152602060048201526024808201527f45524332303a20617070726f76652066726f6d20746865207a65726f206164646044820152637265737360e01b6064820152608401610799565b6001600160a01b0382166112e05760405162461bcd60e51b815260206004820152602260248201527f45524332303a20617070726f766520746f20746865207a65726f206164647265604482015261737360f01b6064820152608401610799565b6001600160a01b0383811660008181526034602090815260408083209487168084529482529182902085905590518481527f8c5be1e5ebec7d5bd14f71427d1e84f3dd0314c0f7b2291e5b200ac8c7c3b925910160405180910390a3505050565b600061134d84846110f8565b905060001981146113b557818110156113a85760405162461bcd60e51b815260206004820152601d60248201527f45524332303a20696e73756666696369656e7420616c6c6f77616e63650000006044820152606401610799565b6113b5848484840361121d565b50505050565b6001600160a01b03831661141f5760405162461bcd60e51b815260206004820152602560248201527f45524332303a207472616e736665722066726f6d20746865207a65726f206164604482015264647265737360d81b6064820152608401610799565b6001600160a01b0382166114815760405162461bcd60e51b815260206004820152602360248201527f45524332303a207472616e7366657220746f20746865207a65726f206164647260448201526265737360e81b6064820152608401610799565b61148c838383611c5b565b6001600160a01b038316600090815260336020526040902054818110156115045760405162461bcd60e51b815260206004820152602660248201527f45524332303a207472616e7366657220616d6f756e7420657863656564732062604482015265616c616e636560d01b6064820152608401610799565b6001600160a01b0380851660009081526033602052604080822085850390559185168152908120805484929061153b908490612eca565b92505081905550826001600160a01b0316846001600160a01b03167fddf252ad1be2c89b69c2b068fc378daa952ba7f163c4a11628f55a4df523b3ef8460405161158791815260200190565b60405180910390a36113b5848484611c63565b600061074b7f8b73c3c69bb8fe3d512ecc4cf759cc79239f7b179b0ffacaa9a75d522b39400f6115c960655490565b6066546040805160208101859052908101839052606081018290524660808201523060a082015260009060c0016040516020818303038152906040528051906020012090509392505050565b610836611859565b7f4910fdfa16fed3260ed0e7147f7cc6da11a60208b5b9406d12a635614ffd91435460ff16156116555761165083611c6e565b505050565b826001600160a01b03166352d1902d6040518163ffffffff1660e01b815260040160206040518083038186803b15801561168e57600080fd5b505afa9250505080156116be575060408051601f3d908101601f191682019092526116bb91810190613021565b60015b6117215760405162461bcd60e51b815260206004820152602e60248201527f45524331393637557067726164653a206e657720696d706c656d656e7461746960448201526d6f6e206973206e6f74205555505360901b6064820152608401610799565b6000805160206130da83398151915281146117905760405162461bcd60e51b815260206004820152602960248201527f45524331393637557067726164653a20756e737570706f727465642070726f786044820152681a58589b195555525160ba1b6064820152608401610799565b50611650838383611d0a565b8154600090815b818110156118005760006117b78284611d2f565b9050848682815481106117cc576117cc61300b565b60009182526020909120015463ffffffff1611156117ec578092506117fa565b6117f7816001612eca565b91505b506117a3565b81156118445784611812600184612ff4565b815481106118225761182261300b565b60009182526020909120015464010000000090046001600160e01b0316611847565b60005b6001600160e01b031695945050505050565b610163546001600160a01b031633146108de5760405162461bcd60e51b815260206004820181905260248201527f4f776e61626c653a2063616c6c6572206973206e6f7420746865206f776e65726044820152606401610799565b6118bc611d4a565b60fe805460ff191690557f5db9ee0a495bf2e6ff9c91a7834c1ba4fdd244a5e8aa4e537bd38aeae4b073aa335b6040516001600160a01b03909116815260200160405180910390a1565b6001600160a01b03828116600081815260cc6020818152604080842080546033845282862054949093528787166001600160a01b03198416811790915590519190951694919391928592917f3134e8a2e6d97e929a7e54011ea5485d7d196dd5f0ba4d4ef95803e8e3fc257f9190a46113b5828483611d93565b600063ffffffff8211156119e55760405162461bcd60e51b815260206004820152602660248201527f53616665436173743a2076616c756520646f65736e27742066697420696e203360448201526532206269747360d01b6064820152608401610799565b5090565b61016380546001600160a01b038381166001600160a01b0319831681179093556040519116919082907f8be0079c531659141344cd1fd0a4f28419497f9722a3daafe3b4186f6b6457e090600090a35050565b600054610100900460ff16611a635760405162461bcd60e51b81526004016107999061303a565b6109ad8282611ed0565b600054610100900460ff16611a945760405162461bcd60e51b81526004016107999061303a565b61083681604051806040016040528060018152602001603160f81b815250611f1e565b600054610100900460ff166108de5760405162461bcd60e51b81526004016107999061303a565b600054610100900460ff16611b055760405162461bcd60e51b81526004016107999061303a565b6108de611f5f565b600054610100900460ff16611b345760405162461bcd60e51b81526004016107999061303a565b61083681611f92565b600054610100900460ff16611b645760405162461bcd60e51b81526004016107999061303a565b6108de612007565b6109ad8282612037565b611b7e6120a7565b60fe805460ff191660011790557f62e78cea01bee320cd4e420270b5ea74000d11b0c9f74754ebdbfc544b05a2586118e93390565b6109ad82826120ed565b6000610715611bca61159a565b8360405161190160f01b6020820152602281018390526042810182905260009060620160405160208183030381529060405280519060200120905092915050565b6000806000611c1c87878787612105565b91509150611c29816121f2565b5095945050505050565b6001600160a01b03811660009081526099602052604090208054600181018255905b50919050565b6116506120a7565b6116508383836123ad565b6001600160a01b0381163b611cdb5760405162461bcd60e51b815260206004820152602d60248201527f455243313936373a206e657720696d706c656d656e746174696f6e206973206e60448201526c1bdd08184818dbdb9d1c9858dd609a1b6064820152608401610799565b6000805160206130da83398151915280546001600160a01b0319166001600160a01b0392909216919091179055565b611d13836123df565b600082511180611d205750805b15611650576113b5838361241f565b6000611d3e6002848418613085565b61073a90848416612eca565b60fe5460ff166108de5760405162461bcd60e51b815260206004820152601460248201527314185d5cd8589b194e881b9bdd081c185d5cd95960621b6044820152606401610799565b816001600160a01b0316836001600160a01b031614158015611db55750600081115b15611650576001600160a01b03831615611e43576001600160a01b038316600090815260cd602052604081208190611df0906125138561251f565b91509150846001600160a01b03167fdec2bacdd2f05b59de34da9b523dff8be42e5e38e818c82fdb0bae774387a7248383604051611e38929190918252602082015260400190565b60405180910390a250505b6001600160a01b03821615611650576001600160a01b038216600090815260cd602052604081208190611e79906126988561251f565b91509150836001600160a01b03167fdec2bacdd2f05b59de34da9b523dff8be42e5e38e818c82fdb0bae774387a7248383604051611ec1929190918252602082015260400190565b60405180910390a25050505050565b600054610100900460ff16611ef75760405162461bcd60e51b81526004016107999061303a565b8151611f0a906036906020850190612a24565b508051611650906037906020840190612a24565b600054610100900460ff16611f455760405162461bcd60e51b81526004016107999061303a565b815160209283012081519190920120606591909155606655565b600054610100900460ff16611f865760405162461bcd60e51b81526004016107999061303a565b60fe805460ff19169055565b600054610100900460ff16611fb95760405162461bcd60e51b81526004016107999061303a565b600081116120015760405162461bcd60e51b8152602060048201526015602482015274045524332304361707065643a20636170206973203605c1b6044820152606401610799565b61013055565b600054610100900460ff1661202e5760405162461bcd60e51b81526004016107999061303a565b6108de336119e9565b610130548161204560355490565b61204f9190612eca565b111561209d5760405162461bcd60e51b815260206004820152601960248201527f45524332304361707065643a20636170206578636565646564000000000000006044820152606401610799565b6109ad82826126a4565b60fe5460ff16156108de5760405162461bcd60e51b815260206004820152601060248201526f14185d5cd8589b194e881c185d5cd95960821b6044820152606401610799565b6120f7828261272e565b6113b560ce6125138361251f565b6000807f7fffffffffffffffffffffffffffffff5d576e7357a4501ddfe92f46681b20a083111561213c57506000905060036121e9565b8460ff16601b1415801561215457508460ff16601c14155b1561216557506000905060046121e9565b6040805160008082526020820180845289905260ff881692820192909252606081018690526080810185905260019060a0016020604051602081039080840390855afa1580156121b9573d6000803e3d6000fd5b5050604051601f1901519150506001600160a01b0381166121e2576000600192509250506121e9565b9150600090505b94509492505050565b6000816004811115612206576122066130a7565b141561220f5750565b6001816004811115612223576122236130a7565b14156122715760405162461bcd60e51b815260206004820152601860248201527f45434453413a20696e76616c6964207369676e617475726500000000000000006044820152606401610799565b6002816004811115612285576122856130a7565b14156122d35760405162461bcd60e51b815260206004820152601f60248201527f45434453413a20696e76616c6964207369676e6174757265206c656e677468006044820152606401610799565b60038160048111156122e7576122e76130a7565b14156123405760405162461bcd60e51b815260206004820152602260248201527f45434453413a20696e76616c6964207369676e6174757265202773272076616c604482015261756560f01b6064820152608401610799565b6004816004811115612354576123546130a7565b14156108365760405162461bcd60e51b815260206004820152602260248201527f45434453413a20696e76616c6964207369676e6174757265202776272076616c604482015261756560f01b6064820152608401610799565b6001600160a01b03838116600090815260cc602052604080822054858416835291205461165092918216911683611d93565b6123e881611c6e565b6040516001600160a01b038216907fbc7cd75a20ee27fd9adebab32041f755214dbc6bffa90cc0225b39da2e5c2d3b90600090a250565b60606001600160a01b0383163b6124875760405162461bcd60e51b815260206004820152602660248201527f416464726573733a2064656c65676174652063616c6c20746f206e6f6e2d636f6044820152651b9d1c9858dd60d21b6064820152608401610799565b600080846001600160a01b0316846040516124a291906130bd565b600060405180830381855af49150503d80600081146124dd576040519150601f19603f3d011682016040523d82523d6000602084013e6124e2565b606091505b509150915061250a82826040518060600160405280602781526020016130fa6027913961288f565b95945050505050565b600061073a8284612ff4565b82546000908190801561256a5785612538600183612ff4565b815481106125485761254861300b565b60009182526020909120015464010000000090046001600160e01b031661256d565b60005b6001600160e01b0316925061258683858763ffffffff16565b91506000811180156125c4575043866125a0600184612ff4565b815481106125b0576125b061300b565b60009182526020909120015463ffffffff16145b15612624576125d2826128c8565b866125de600184612ff4565b815481106125ee576125ee61300b565b9060005260206000200160000160046101000a8154816001600160e01b0302191690836001600160e01b0316021790555061268f565b85604051806040016040528061263943611980565b63ffffffff16815260200161264d856128c8565b6001600160e01b0390811690915282546001810184556000938452602093849020835194909301519091166401000000000263ffffffff909316929092179101555b50935093915050565b600061073a8284612eca565b6126ae8282612931565b6035546001600160e01b0310156127205760405162461bcd60e51b815260206004820152603060248201527f4552433230566f7465733a20746f74616c20737570706c79207269736b73206f60448201526f766572666c6f77696e6720766f74657360801b6064820152608401610799565b6113b560ce6126988361251f565b6001600160a01b03821661278e5760405162461bcd60e51b815260206004820152602160248201527f45524332303a206275726e2066726f6d20746865207a65726f206164647265736044820152607360f81b6064820152608401610799565b61279a82600083611c5b565b6001600160a01b0382166000908152603360205260409020548181101561280e5760405162461bcd60e51b815260206004820152602260248201527f45524332303a206275726e20616d6f756e7420657863656564732062616c616e604482015261636560f01b6064820152608401610799565b6001600160a01b038316600090815260336020526040812083830390556035805484929061283d908490612ff4565b90915550506040518281526000906001600160a01b038516907fddf252ad1be2c89b69c2b068fc378daa952ba7f163c4a11628f55a4df523b3ef9060200160405180910390a361165083600084611c63565b6060831561289e57508161073a565b8251156128ae5782518084602001fd5b8160405162461bcd60e51b81526004016107999190612ae0565b60006001600160e01b038211156119e55760405162461bcd60e51b815260206004820152602760248201527f53616665436173743a2076616c756520646f65736e27742066697420696e20326044820152663234206269747360c81b6064820152608401610799565b6001600160a01b0382166129875760405162461bcd60e51b815260206004820152601f60248201527f45524332303a206d696e7420746f20746865207a65726f2061646472657373006044820152606401610799565b61299360008383611c5b565b80603560008282546129a59190612eca565b90915550506001600160a01b038216600090815260336020526040812080548392906129d2908490612eca565b90915550506040518181526001600160a01b038316906000907fddf252ad1be2c89b69c2b068fc378daa952ba7f163c4a11628f55a4df523b3ef9060200160405180910390a36109ad60008383611c63565b828054612a3090612de7565b90600052602060002090601f016020900481019282612a525760008555612a98565b82601f10612a6b57805160ff1916838001178555612a98565b82800160010185558215612a98579182015b82811115612a98578251825591602001919060010190612a7d565b506119e59291505b808211156119e55760008155600101612aa0565b60005b83811015612acf578181015183820152602001612ab7565b838111156113b55750506000910152565b6020815260008251806020840152612aff816040850160208701612ab4565b601f01601f19169190910160400192915050565b80356001600160a01b0381168114612b2a57600080fd5b919050565b60008060408385031215612b4257600080fd5b612b4b83612b13565b946020939093013593505050565b600080600060608486031215612b6e57600080fd5b612b7784612b13565b9250612b8560208501612b13565b9150604084013590509250925092565b600060208284031215612ba757600080fd5b61073a82612b13565b634e487b7160e01b600052604160045260246000fd5b60008060408385031215612bd957600080fd5b612be283612b13565b9150602083013567ffffffffffffffff80821115612bff57600080fd5b818501915085601f830112612c1357600080fd5b813581811115612c2557612c25612bb0565b604051601f8201601f19908116603f01168101908382118183101715612c4d57612c4d612bb0565b81604052828152886020848701011115612c6657600080fd5b8260208601602083013760006020848301015280955050505050509250929050565b600060208284031215612c9a57600080fd5b5035919050565b803560ff81168114612b2a57600080fd5b60008060008060008060c08789031215612ccb57600080fd5b612cd487612b13565b95506020870135945060408701359350612cf060608801612ca1565b92506080870135915060a087013590509295509295509295565b600080600080600080600060e0888a031215612d2557600080fd5b612d2e88612b13565b9650612d3c60208901612b13565b95506040880135945060608801359350612d5860808901612ca1565b925060a0880135915060c0880135905092959891949750929550565b60008060408385031215612d8757600080fd5b612d9083612b13565b9150612d9e60208401612b13565b90509250929050565b60008060408385031215612dba57600080fd5b612dc383612b13565b9150602083013563ffffffff81168114612ddc57600080fd5b809150509250929050565b600181811c90821680612dfb57607f821691505b60208210811415611c5557634e487b7160e01b600052602260045260246000fd5b6020808252602c908201527f46756e6374696f6e206d7573742062652063616c6c6564207468726f7567682060408201526b19195b1959d85d1958d85b1b60a21b606082015260800190565b6020808252602c908201527f46756e6374696f6e206d7573742062652063616c6c6564207468726f7567682060408201526b6163746976652070726f787960a01b606082015260800190565b634e487b7160e01b600052601160045260246000fd5b60008219821115612edd57612edd612eb4565b500190565b600181815b80851115612f1d578160001904821115612f0357612f03612eb4565b80851615612f1057918102915b93841c9390800290612ee7565b509250929050565b600082612f3457506001610715565b81612f4157506000610715565b8160018114612f575760028114612f6157612f7d565b6001915050610715565b60ff841115612f7257612f72612eb4565b50506001821b610715565b5060208310610133831016604e8410600b8410161715612fa0575081810a610715565b612faa8383612ee2565b8060001904821115612fbe57612fbe612eb4565b029392505050565b600061073a60ff841683612f25565b6000816000190483118215151615612fef57612fef612eb4565b500290565b60008282101561300657613006612eb4565b500390565b634e487b7160e01b600052603260045260246000fd5b60006020828403121561303357600080fd5b5051919050565b6020808252602b908201527f496e697469616c697a61626c653a20636f6e7472616374206973206e6f74206960408201526a6e697469616c697a696e6760a81b606082015260800190565b6000826130a257634e487b7160e01b600052601260045260246000fd5b500490565b634e487b7160e01b600052602160045260246000fd5b600082516130cf818460208701612ab4565b919091019291505056fe360894a13ba1a3210667c828492db98dca3e2076cc3735a920a3ca505d382bbc416464726573733a206c6f772d6c6576656c2064656c65676174652063616c6c206661696c6564a264697066735822122076d4b634c6f3ba91eb9e36f611492c2784428c7853c36ed942d95dfa1f16c74764736f6c63430008090033",
  "linkReferences": {},
  "deployedLinkReferences": {}
}