{
  "_format": "hh-sol-artifact-1",
  "contractName": "ROMG",
  "sourceName": "contracts/romg.sol",
  "abi": [
    {
      "inputs": [],
      "stateMutability": "nonpayable",
      "type": "constructor"
    },
    {
      "anonymous": false,
      "inputs": [
        {
          "indexed": false,
          "internalType": "address",
          "name": "previousAdmin",
          "type": "address"
        },
        {
          "indexed": false,
          "internalType": "address",
          "name": "newAdmin",
          "type": "address"
        }
      ],
      "name": "AdminChanged",
      "type": "event"
    },
    {
      "anonymous": false,
      "inputs": [
        {
          "indexed": true,
          "internalType": "address",
          "name": "owner",
          "type": "address"
        },
        {
          "indexed": true,
          "internalType": "address",
          "name": "spender",
          "type": "address"
        },
        {
          "indexed": false,
          "internalType": "uint256",
          "name": "value",
          "type": "uint256"
        }
      ],
      "name": "Approval",
      "type": "event"
    },
    {
      "anonymous": false,
      "inputs": [
        {
          "indexed": true,
          "internalType": "address",
          "name": "beacon",
          "type": "address"
        }
      ],
      "name": "BeaconUpgraded",
      "type": "event"
    },
    {
      "anonymous": false,
      "inputs": [
        {
          "indexed": false,
          "internalType": "uint8",
          "name": "version",
          "type": "uint8"
        }
      ],
      "name": "Initialized",
      "type": "event"
    },
    {
      "anonymous": false,
      "inputs": [
        {
          "indexed": true,
          "internalType": "address",
          "name": "previousOwner",
          "type": "address"
        },
        {
          "indexed": true,
          "internalType": "address",
          "name": "newOwner",
          "type": "address"
        }
      ],
      "name": "OwnershipTransferred",
      "type": "event"
    },
    {
      "anonymous": false,
      "inputs": [
        {
          "indexed": false,
          "internalType": "address",
          "name": "account",
          "type": "address"
        }
      ],
      "name": "Paused",
      "type": "event"
    },
    {
      "anonymous": false,
      "inputs": [
        {
          "indexed": true,
          "internalType": "address",
          "name": "from",
          "type": "address"
        },
        {
          "indexed": true,
          "internalType": "address",
          "name": "to",
          "type": "address"
        },
        {
          "indexed": false,
          "internalType": "uint256",
          "name": "value",
          "type": "uint256"
        }
      ],
      "name": "Transfer",
      "type": "event"
    },
    {
      "anonymous": false,
      "inputs": [
        {
          "indexed": false,
          "internalType": "address",
          "name": "account",
          "type": "address"
        }
      ],
      "name": "Unpaused",
      "type": "event"
    },
    {
      "anonymous": false,
      "inputs": [
        {
          "indexed": true,
          "internalType": "address",
          "name": "implementation",
          "type": "address"
        }
      ],
      "name": "Upgraded",
      "type": "event"
    },
    {
      "inputs": [
        {
          "internalType": "address",
          "name": "owner",
          "type": "address"
        },
        {
          "internalType": "address",
          "name": "spender",
          "type": "address"
        }
      ],
      "name": "allowance",
      "outputs": [
        {
          "internalType": "uint256",
          "name": "",
          "type": "uint256"
        }
      ],
      "stateMutability": "view",
      "type": "function"
    },
    {
      "inputs": [
        {
          "internalType": "address",
          "name": "spender",
          "type": "address"
        },
        {
          "internalType": "uint256",
          "name": "amount",
          "type": "uint256"
        }
      ],
      "name": "approve",
      "outputs": [
        {
          "internalType": "bool",
          "name": "",
          "type": "bool"
        }
      ],
      "stateMutability": "nonpayable",
      "type": "function"
    },
    {
      "inputs": [
        {
          "internalType": "address",
          "name": "account",
          "type": "address"
        }
      ],
      "name": "balanceOf",
      "outputs": [
        {
          "internalType": "uint256",
          "name": "",
          "type": "uint256"
        }
      ],
      "stateMutability": "view",
      "type": "function"
    },
    {
      "inputs": [
        {
          "internalType": "address",
          "name": "from",
          "type": "address"
        },
        {
          "internalType": "uint256",
          "name": "amount",
          "type": "uint256"
        }
      ],
      "name": "burn",
      "outputs": [],
      "stateMutability": "nonpayable",
      "type": "function"
    },
    {
      "inputs": [],
      "name": "cap",
      "outputs": [
        {
          "internalType": "uint256",
          "name": "",
          "type": "uint256"
        }
      ],
      "stateMutability": "view",
      "type": "function"
    },
    {
      "inputs": [],
      "name": "decimals",
      "outputs": [
        {
          "internalType": "uint8",
          "name": "",
          "type": "uint8"
        }
      ],
      "stateMutability": "view",
      "type": "function"
    },
    {
      "inputs": [
        {
          "internalType": "address",
          "name": "spender",
          "type": "address"
        },
        {
          "internalType": "uint256",
          "name": "subtractedValue",
          "type": "uint256"
        }
      ],
      "name": "decreaseAllowance",
      "outputs": [
        {
          "internalType": "bool",
          "name": "",
          "type": "bool"
        }
      ],
      "stateMutability": "nonpayable",
      "type": "function"
    },
    {
      "inputs": [
        {
          "internalType": "address",
          "name": "spender",
          "type": "address"
        },
        {
          "internalType": "uint256",
          "name": "addedValue",
          "type": "uint256"
        }
      ],
      "name": "increaseAllowance",
      "outputs": [
        {
          "internalType": "bool",
          "name": "",
          "type": "bool"
        }
      ],
      "stateMutability": "nonpayable",
      "type": "function"
    },
    {
      "inputs": [],
      "name": "initialize",
      "outputs": [],
      "stateMutability": "nonpayable",
      "type": "function"
    },
    {
      "inputs": [],
      "name": "name",
      "outputs": [
        {
          "internalType": "string",
          "name": "",
          "type": "string"
        }
      ],
      "stateMutability": "view",
      "type": "function"
    },
    {
      "inputs": [],
      "name": "owner",
      "outputs": [
        {
          "internalType": "address",
          "name": "",
          "type": "address"
        }
      ],
      "stateMutability": "view",
      "type": "function"
    },
    {
      "inputs": [],
      "name": "pause",
      "outputs": [],
      "stateMutability": "nonpayable",
      "type": "function"
    },
    {
      "inputs": [],
      "name": "paused",
      "outputs": [
        {
          "internalType": "bool",
          "name": "",
          "type": "bool"
        }
      ],
      "stateMutability": "view",
      "type": "function"
    },
    {
      "inputs": [],
      "name": "proxiableUUID",
      "outputs": [
        {
          "internalType": "bytes32",
          "name": "",
          "type": "bytes32"
        }
      ],
      "stateMutability": "view",
      "type": "function"
    },
    {
      "inputs": [],
      "name": "renounceOwnership",
      "outputs": [],
      "stateMutability": "nonpayable",
      "type": "function"
    },
    {
      "inputs": [],
      "name": "symbol",
      "outputs": [
        {
          "internalType": "string",
          "name": "",
          "type": "string"
        }
      ],
      "stateMutability": "view",
      "type": "function"
    },
    {
      "inputs": [],
      "name": "totalSupply",
      "outputs": [
        {
          "internalType": "uint256",
          "name": "",
          "type": "uint256"
        }
      ],
      "stateMutability": "view",
      "type": "function"
    },
    {
      "inputs": [
        {
          "internalType": "address",
          "name": "to",
          "type": "address"
        },
        {
          "internalType": "uint256",
          "name": "amount",
          "type": "uint256"
        }
      ],
      "name": "transfer",
      "outputs": [
        {
          "internalType": "bool",
          "name": "",
          "type": "bool"
        }
      ],
      "stateMutability": "nonpayable",
      "type": "function"
    },
    {
      "inputs": [
        {
          "internalType": "address",
          "name": "from",
          "type": "address"
        },
        {
          "internalType": "address",
          "name": "to",
          "type": "address"
        },
        {
          "internalType": "uint256",
          "name": "amount",
          "type": "uint256"
        }
      ],
      "name": "transferFrom",
      "outputs": [
        {
          "internalType": "bool",
          "name": "",
          "type": "bool"
        }
      ],
      "stateMutability": "nonpayable",
      "type": "function"
    },
    {
      "inputs": [
        {
          "internalType": "address",
          "name": "newOwner",
          "type": "address"
        }
      ],
      "name": "transferOwnership",
      "outputs": [],
      "stateMutability": "nonpayable",
      "type": "function"
    },
    {
      "inputs": [],
      "name": "unpause",
      "outputs": [],
      "stateMutability": "nonpayable",
      "type": "function"
    },
    {
      "inputs": [
        {
          "internalType": "address",
          "name": "newImplementation",
          "type": "address"
        }
      ],
      "name": "upgradeTo",
      "outputs": [],
      "stateMutability": "nonpayable",
      "type": "function"
    },
    {
      "inputs": [
        {
          "internalType": "address",
          "name": "newImplementation",
          "type": "address"
        },
        {
          "internalType": "bytes",
          "name": "data",
          "type": "bytes"
        }
      ],
      "name": "upgradeToAndCall",
      "outputs": [],
      "stateMutability": "payable",
      "type": "function"
    }
  ],
  "bytecode": "0x60a06040523060805234801561001457600080fd5b5061001d610022565b6100e2565b600054610100900460ff161561008e5760405162461bcd60e51b815260206004820152602760248201527f496e697469616c697a61626c653a20636f6e747261637420697320696e697469604482015266616c697a696e6760c81b606482015260840160405180910390fd5b60005460ff90811610156100e0576000805460ff191660ff9081179091556040519081527f7f26b83ff96e1f2b6a682f133852f6798a09c465da95921460cefb38474024989060200160405180910390a15b565b608051611e26610119600039600081816104d60152818161051f015281816105f30152818161063301526106c60152611e266000f3fe6080604052600436106101405760003560e01c80635c975abb116100b657806395d89b411161006f57806395d89b41146103445780639dc29fac14610359578063a457c2d714610379578063a9059cbb14610399578063dd62ed3e146103b9578063f2fde38b146103d957600080fd5b80635c975abb1461028f57806370a08231146102a7578063715018a6146102dd5780638129fc1c146102f25780638456cb59146103075780638da5cb5b1461031c57600080fd5b8063355274ea11610108578063355274ea146101fb5780633659cfe61461021057806339509351146102325780633f4ba83a146102525780634f1ef2861461026757806352d1902d1461027a57600080fd5b806306fdde0314610145578063095ea7b31461017057806318160ddd146101a057806323b872dd146101bf578063313ce567146101df575b600080fd5b34801561015157600080fd5b5061015a6103f9565b6040516101679190611924565b60405180910390f35b34801561017c57600080fd5b5061019061018b366004611973565b61048b565b6040519015158152602001610167565b3480156101ac57600080fd5b506035545b604051908152602001610167565b3480156101cb57600080fd5b506101906101da36600461199d565b6104a5565b3480156101eb57600080fd5b5060405160128152602001610167565b34801561020757600080fd5b506097546101b1565b34801561021c57600080fd5b5061023061022b3660046119d9565b6104cb565b005b34801561023e57600080fd5b5061019061024d366004611973565b6105b4565b34801561025e57600080fd5b506102306105d6565b610230610275366004611a0a565b6105e8565b34801561028657600080fd5b506101b16106b9565b34801561029b57600080fd5b5060655460ff16610190565b3480156102b357600080fd5b506101b16102c23660046119d9565b6001600160a01b031660009081526033602052604090205490565b3480156102e957600080fd5b5061023061076c565b3480156102fe57600080fd5b5061023061077e565b34801561031357600080fd5b50610230610932565b34801561032857600080fd5b5060ca546040516001600160a01b039091168152602001610167565b34801561035057600080fd5b5061015a610942565b34801561036557600080fd5b50610230610374366004611973565b610951565b34801561038557600080fd5b50610190610394366004611973565b610963565b3480156103a557600080fd5b506101906103b4366004611973565b6109e9565b3480156103c557600080fd5b506101b16103d4366004611acc565b6109f7565b3480156103e557600080fd5b506102306103f43660046119d9565b610a22565b60606036805461040890611aff565b80601f016020809104026020016040519081016040528092919081815260200182805461043490611aff565b80156104815780601f1061045657610100808354040283529160200191610481565b820191906000526020600020905b81548152906001019060200180831161046457829003601f168201915b5050505050905090565b600033610499818585610a98565b60019150505b92915050565b6000336104b3858285610bbc565b6104be858585610c36565b60019150505b9392505050565b306001600160a01b037f000000000000000000000000000000000000000000000000000000000000000016141561051d5760405162461bcd60e51b815260040161051490611b3a565b60405180910390fd5b7f00000000000000000000000000000000000000000000000000000000000000006001600160a01b0316610566600080516020611daa833981519152546001600160a01b031690565b6001600160a01b03161461058c5760405162461bcd60e51b815260040161051490611b86565b61059581610e0f565b604080516000808252602082019092526105b191839190610e17565b50565b6000336104998185856105c783836109f7565b6105d19190611be8565b610a98565b6105de610f96565b6105e6610ff0565b565b306001600160a01b037f00000000000000000000000000000000000000000000000000000000000000001614156106315760405162461bcd60e51b815260040161051490611b3a565b7f00000000000000000000000000000000000000000000000000000000000000006001600160a01b031661067a600080516020611daa833981519152546001600160a01b031690565b6001600160a01b0316146106a05760405162461bcd60e51b815260040161051490611b86565b6106a982610e0f565b6106b582826001610e17565b5050565b6000306001600160a01b037f000000000000000000000000000000000000000000000000000000000000000016146107595760405162461bcd60e51b815260206004820152603860248201527f555550535570677261646561626c653a206d757374206e6f742062652063616c60448201527f6c6564207468726f7567682064656c656761746563616c6c00000000000000006064820152608401610514565b50600080516020611daa83398151915290565b610774610f96565b6105e66000611042565b600054610100900460ff161580801561079e5750600054600160ff909116105b806107b85750303b1580156107b8575060005460ff166001145b61081b5760405162461bcd60e51b815260206004820152602e60248201527f496e697469616c697a61626c653a20636f6e747261637420697320616c72656160448201526d191e481a5b9a5d1a585b1a5e995960921b6064820152608401610514565b6000805460ff19166001179055801561083e576000805461ff0019166101001790555b61088b6040518060400160405280600f81526020016e2927a6a11023b0b6b2902a37b5b2b760891b81525060405180604001604052806004815260200163524f4d4760e01b815250611094565b6108936110c5565b6108b66108a26012600a611ce4565b6108b190640ba43b7400611cf3565b6110f4565b6108be611124565b6108c6611153565b6108ea336108d66012600a611ce4565b6108e590640ba43b7400611cf3565b61117a565b80156105b1576000805461ff0019169055604051600181527f7f26b83ff96e1f2b6a682f133852f6798a09c465da95921460cefb38474024989060200160405180910390a150565b61093a610f96565b6105e6611184565b60606037805461040890611aff565b610959610f96565b6106b582826111c1565b6000338161097182866109f7565b9050838110156109d15760405162461bcd60e51b815260206004820152602560248201527f45524332303a2064656372656173656420616c6c6f77616e63652062656c6f77604482015264207a65726f60d81b6064820152608401610514565b6109de8286868403610a98565b506001949350505050565b600033610499818585610c36565b6001600160a01b03918216600090815260346020908152604080832093909416825291909152205490565b610a2a610f96565b6001600160a01b038116610a8f5760405162461bcd60e51b815260206004820152602660248201527f4f776e61626c653a206e6577206f776e657220697320746865207a65726f206160448201526564647265737360d01b6064820152608401610514565b6105b181611042565b6001600160a01b038316610afa5760405162461bcd60e51b8152602060048201526024808201527f45524332303a20617070726f76652066726f6d20746865207a65726f206164646044820152637265737360e01b6064820152608401610514565b6001600160a01b038216610b5b5760405162461bcd60e51b815260206004820152602260248201527f45524332303a20617070726f766520746f20746865207a65726f206164647265604482015261737360f01b6064820152608401610514565b6001600160a01b0383811660008181526034602090815260408083209487168084529482529182902085905590518481527f8c5be1e5ebec7d5bd14f71427d1e84f3dd0314c0f7b2291e5b200ac8c7c3b925910160405180910390a3505050565b6000610bc884846109f7565b90506000198114610c305781811015610c235760405162461bcd60e51b815260206004820152601d60248201527f45524332303a20696e73756666696369656e7420616c6c6f77616e63650000006044820152606401610514565b610c308484848403610a98565b50505050565b6001600160a01b038316610c9a5760405162461bcd60e51b815260206004820152602560248201527f45524332303a207472616e736665722066726f6d20746865207a65726f206164604482015264647265737360d81b6064820152608401610514565b6001600160a01b038216610cfc5760405162461bcd60e51b815260206004820152602360248201527f45524332303a207472616e7366657220746f20746865207a65726f206164647260448201526265737360e81b6064820152608401610514565b610d0783838361131b565b6001600160a01b03831660009081526033602052604090205481811015610d7f5760405162461bcd60e51b815260206004820152602660248201527f45524332303a207472616e7366657220616d6f756e7420657863656564732062604482015265616c616e636560d01b6064820152608401610514565b6001600160a01b03808516600090815260336020526040808220858503905591851681529081208054849290610db6908490611be8565b92505081905550826001600160a01b0316846001600160a01b03167fddf252ad1be2c89b69c2b068fc378daa952ba7f163c4a11628f55a4df523b3ef84604051610e0291815260200190565b60405180910390a3610c30565b6105b1610f96565b7f4910fdfa16fed3260ed0e7147f7cc6da11a60208b5b9406d12a635614ffd91435460ff1615610e4f57610e4a83611323565b505050565b826001600160a01b03166352d1902d6040518163ffffffff1660e01b815260040160206040518083038186803b158015610e8857600080fd5b505afa925050508015610eb8575060408051601f3d908101601f19168201909252610eb591810190611d12565b60015b610f1b5760405162461bcd60e51b815260206004820152602e60248201527f45524331393637557067726164653a206e657720696d706c656d656e7461746960448201526d6f6e206973206e6f74205555505360901b6064820152608401610514565b600080516020611daa8339815191528114610f8a5760405162461bcd60e51b815260206004820152602960248201527f45524331393637557067726164653a20756e737570706f727465642070726f786044820152681a58589b195555525160ba1b6064820152608401610514565b50610e4a8383836113bf565b60ca546001600160a01b031633146105e65760405162461bcd60e51b815260206004820181905260248201527f4f776e61626c653a2063616c6c6572206973206e6f7420746865206f776e65726044820152606401610514565b610ff86113e4565b6065805460ff191690557f5db9ee0a495bf2e6ff9c91a7834c1ba4fdd244a5e8aa4e537bd38aeae4b073aa335b6040516001600160a01b03909116815260200160405180910390a1565b60ca80546001600160a01b038381166001600160a01b0319831681179093556040519116919082907f8be0079c531659141344cd1fd0a4f28419497f9722a3daafe3b4186f6b6457e090600090a35050565b600054610100900460ff166110bb5760405162461bcd60e51b815260040161051490611d2b565b6106b5828261142d565b600054610100900460ff166110ec5760405162461bcd60e51b815260040161051490611d2b565b6105e661147b565b600054610100900460ff1661111b5760405162461bcd60e51b815260040161051490611d2b565b6105b1816114ae565b600054610100900460ff1661114b5760405162461bcd60e51b815260040161051490611d2b565b6105e6611522565b600054610100900460ff166105e65760405162461bcd60e51b815260040161051490611d2b565b6106b58282611552565b61118c6115c1565b6065805460ff191660011790557f62e78cea01bee320cd4e420270b5ea74000d11b0c9f74754ebdbfc544b05a2586110253390565b6001600160a01b0382166112215760405162461bcd60e51b815260206004820152602160248201527f45524332303a206275726e2066726f6d20746865207a65726f206164647265736044820152607360f81b6064820152608401610514565b61122d8260008361131b565b6001600160a01b038216600090815260336020526040902054818110156112a15760405162461bcd60e51b815260206004820152602260248201527f45524332303a206275726e20616d6f756e7420657863656564732062616c616e604482015261636560f01b6064820152608401610514565b6001600160a01b03831660009081526033602052604081208383039055603580548492906112d0908490611d76565b90915550506040518281526000906001600160a01b038516907fddf252ad1be2c89b69c2b068fc378daa952ba7f163c4a11628f55a4df523b3ef9060200160405180910390a3505050565b610e4a6115c1565b6001600160a01b0381163b6113905760405162461bcd60e51b815260206004820152602d60248201527f455243313936373a206e657720696d706c656d656e746174696f6e206973206e60448201526c1bdd08184818dbdb9d1c9858dd609a1b6064820152608401610514565b600080516020611daa83398151915280546001600160a01b0319166001600160a01b0392909216919091179055565b6113c883611607565b6000825111806113d55750805b15610e4a57610c308383611647565b60655460ff166105e65760405162461bcd60e51b815260206004820152601460248201527314185d5cd8589b194e881b9bdd081c185d5cd95960621b6044820152606401610514565b600054610100900460ff166114545760405162461bcd60e51b815260040161051490611d2b565b815161146790603690602085019061185f565b508051610e4a90603790602084019061185f565b600054610100900460ff166114a25760405162461bcd60e51b815260040161051490611d2b565b6065805460ff19169055565b600054610100900460ff166114d55760405162461bcd60e51b815260040161051490611d2b565b6000811161151d5760405162461bcd60e51b8152602060048201526015602482015274045524332304361707065643a20636170206973203605c1b6044820152606401610514565b609755565b600054610100900460ff166115495760405162461bcd60e51b815260040161051490611d2b565b6105e633611042565b6097548161155f60355490565b6115699190611be8565b11156115b75760405162461bcd60e51b815260206004820152601960248201527f45524332304361707065643a20636170206578636565646564000000000000006044820152606401610514565b6106b5828261173b565b60655460ff16156105e65760405162461bcd60e51b815260206004820152601060248201526f14185d5cd8589b194e881c185d5cd95960821b6044820152606401610514565b61161081611323565b6040516001600160a01b038216907fbc7cd75a20ee27fd9adebab32041f755214dbc6bffa90cc0225b39da2e5c2d3b90600090a250565b60606001600160a01b0383163b6116af5760405162461bcd60e51b815260206004820152602660248201527f416464726573733a2064656c65676174652063616c6c20746f206e6f6e2d636f6044820152651b9d1c9858dd60d21b6064820152608401610514565b600080846001600160a01b0316846040516116ca9190611d8d565b600060405180830381855af49150503d8060008114611705576040519150601f19603f3d011682016040523d82523d6000602084013e61170a565b606091505b50915091506117328282604051806060016040528060278152602001611dca60279139611826565b95945050505050565b6001600160a01b0382166117915760405162461bcd60e51b815260206004820152601f60248201527f45524332303a206d696e7420746f20746865207a65726f2061646472657373006044820152606401610514565b61179d6000838361131b565b80603560008282546117af9190611be8565b90915550506001600160a01b038216600090815260336020526040812080548392906117dc908490611be8565b90915550506040518181526001600160a01b038316906000907fddf252ad1be2c89b69c2b068fc378daa952ba7f163c4a11628f55a4df523b3ef9060200160405180910390a35050565b606083156118355750816104c4565b8251156118455782518084602001fd5b8160405162461bcd60e51b81526004016105149190611924565b82805461186b90611aff565b90600052602060002090601f01602090048101928261188d57600085556118d3565b82601f106118a657805160ff19168380011785556118d3565b828001600101855582156118d3579182015b828111156118d35782518255916020019190600101906118b8565b506118df9291506118e3565b5090565b5b808211156118df57600081556001016118e4565b60005b838110156119135781810151838201526020016118fb565b83811115610c305750506000910152565b60208152600082518060208401526119438160408501602087016118f8565b601f01601f19169190910160400192915050565b80356001600160a01b038116811461196e57600080fd5b919050565b6000806040838503121561198657600080fd5b61198f83611957565b946020939093013593505050565b6000806000606084860312156119b257600080fd5b6119bb84611957565b92506119c960208501611957565b9150604084013590509250925092565b6000602082840312156119eb57600080fd5b6104c482611957565b634e487b7160e01b600052604160045260246000fd5b60008060408385031215611a1d57600080fd5b611a2683611957565b9150602083013567ffffffffffffffff80821115611a4357600080fd5b818501915085601f830112611a5757600080fd5b813581811115611a6957611a696119f4565b604051601f8201601f19908116603f01168101908382118183101715611a9157611a916119f4565b81604052828152886020848701011115611aaa57600080fd5b8260208601602083013760006020848301015280955050505050509250929050565b60008060408385031215611adf57600080fd5b611ae883611957565b9150611af660208401611957565b90509250929050565b600181811c90821680611b1357607f821691505b60208210811415611b3457634e487b7160e01b600052602260045260246000fd5b50919050565b6020808252602c908201527f46756e6374696f6e206d7573742062652063616c6c6564207468726f7567682060408201526b19195b1959d85d1958d85b1b60a21b606082015260800190565b6020808252602c908201527f46756e6374696f6e206d7573742062652063616c6c6564207468726f7567682060408201526b6163746976652070726f787960a01b606082015260800190565b634e487b7160e01b600052601160045260246000fd5b60008219821115611bfb57611bfb611bd2565b500190565b600181815b80851115611c3b578160001904821115611c2157611c21611bd2565b80851615611c2e57918102915b93841c9390800290611c05565b509250929050565b600082611c525750600161049f565b81611c5f5750600061049f565b8160018114611c755760028114611c7f57611c9b565b600191505061049f565b60ff841115611c9057611c90611bd2565b50506001821b61049f565b5060208310610133831016604e8410600b8410161715611cbe575081810a61049f565b611cc88383611c00565b8060001904821115611cdc57611cdc611bd2565b029392505050565b60006104c460ff841683611c43565b6000816000190483118215151615611d0d57611d0d611bd2565b500290565b600060208284031215611d2457600080fd5b5051919050565b6020808252602b908201527f496e697469616c697a61626c653a20636f6e7472616374206973206e6f74206960408201526a6e697469616c697a696e6760a81b606082015260800190565b600082821015611d8857611d88611bd2565b500390565b60008251611d9f8184602087016118f8565b919091019291505056fe360894a13ba1a3210667c828492db98dca3e2076cc3735a920a3ca505d382bbc416464726573733a206c6f772d6c6576656c2064656c65676174652063616c6c206661696c6564a26469706673582212206cda71773ff442c0e5685800daa159d7e6a5d2462dfb212f22664b5dec1ca8e364736f6c63430008090033",
  "linkReferences": {},
  "deployedLinkReferences": {}
}