{
  "_format": "hh-sol-artifact-1",
  "contractName": "VestingWallet",
  "sourceName": "contracts/vesting.sol",
  "abi": [
    {
      "inputs": [],
      "stateMutability": "nonpayable",
      "type": "constructor"
    },
    {
      "anonymous": false,
      "inputs": [
        {
          "indexed": false,
          "internalType": "address",
          "name": "previousAdmin",
          "type": "address"
        },
        {
          "indexed": false,
          "internalType": "address",
          "name": "newAdmin",
          "type": "address"
        }
      ],
      "name": "AdminChanged",
      "type": "event"
    },
    {
      "anonymous": false,
      "inputs": [
        {
          "indexed": true,
          "internalType": "address",
          "name": "beacon",
          "type": "address"
        }
      ],
      "name": "BeaconUpgraded",
      "type": "event"
    },
    {
      "anonymous": false,
      "inputs": [
        {
          "indexed": true,
          "internalType": "address",
          "name": "beneficiaryAddress",
          "type": "address"
        },
        {
          "indexed": false,
          "internalType": "uint256",
          "name": "amount",
          "type": "uint256"
        }
      ],
      "name": "ERC20Released",
      "type": "event"
    },
    {
      "anonymous": false,
      "inputs": [
        {
          "indexed": false,
          "internalType": "uint8",
          "name": "version",
          "type": "uint8"
        }
      ],
      "name": "Initialized",
      "type": "event"
    },
    {
      "anonymous": false,
      "inputs": [
        {
          "indexed": true,
          "internalType": "address",
          "name": "previousOwner",
          "type": "address"
        },
        {
          "indexed": true,
          "internalType": "address",
          "name": "newOwner",
          "type": "address"
        }
      ],
      "name": "OwnershipTransferred",
      "type": "event"
    },
    {
      "anonymous": false,
      "inputs": [
        {
          "indexed": true,
          "internalType": "address",
          "name": "implementation",
          "type": "address"
        }
      ],
      "name": "Upgraded",
      "type": "event"
    },
    {
      "anonymous": false,
      "inputs": [
        {
          "indexed": true,
          "internalType": "address",
          "name": "beneficiaryAddress",
          "type": "address"
        },
        {
          "indexed": false,
          "internalType": "uint256",
          "name": "amount",
          "type": "uint256"
        }
      ],
      "name": "VestingCreated",
      "type": "event"
    },
    {
      "inputs": [
        {
          "internalType": "address",
          "name": "",
          "type": "address"
        }
      ],
      "name": "amount",
      "outputs": [
        {
          "internalType": "uint256",
          "name": "",
          "type": "uint256"
        }
      ],
      "stateMutability": "view",
      "type": "function"
    },
    {
      "inputs": [
        {
          "internalType": "address",
          "name": "",
          "type": "address"
        }
      ],
      "name": "cliff",
      "outputs": [
        {
          "internalType": "uint256",
          "name": "",
          "type": "uint256"
        }
      ],
      "stateMutability": "view",
      "type": "function"
    },
    {
      "inputs": [
        {
          "internalType": "address",
          "name": "beneficiaryAddress",
          "type": "address"
        },
        {
          "internalType": "uint64",
          "name": "durationSeconds",
          "type": "uint64"
        },
        {
          "internalType": "uint256",
          "name": "cliffSeconds",
          "type": "uint256"
        },
        {
          "internalType": "uint256",
          "name": "_amount",
          "type": "uint256"
        },
        {
          "internalType": "string",
          "name": "_note",
          "type": "string"
        }
      ],
      "name": "createVesting",
      "outputs": [],
      "stateMutability": "nonpayable",
      "type": "function"
    },
    {
      "inputs": [],
      "name": "debt",
      "outputs": [
        {
          "internalType": "uint256",
          "name": "",
          "type": "uint256"
        }
      ],
      "stateMutability": "view",
      "type": "function"
    },
    {
      "inputs": [
        {
          "internalType": "address",
          "name": "",
          "type": "address"
        }
      ],
      "name": "duration",
      "outputs": [
        {
          "internalType": "uint64",
          "name": "",
          "type": "uint64"
        }
      ],
      "stateMutability": "view",
      "type": "function"
    },
    {
      "inputs": [],
      "name": "initialize",
      "outputs": [],
      "stateMutability": "nonpayable",
      "type": "function"
    },
    {
      "inputs": [
        {
          "internalType": "address",
          "name": "",
          "type": "address"
        }
      ],
      "name": "note",
      "outputs": [
        {
          "internalType": "string",
          "name": "",
          "type": "string"
        }
      ],
      "stateMutability": "view",
      "type": "function"
    },
    {
      "inputs": [],
      "name": "owner",
      "outputs": [
        {
          "internalType": "address",
          "name": "",
          "type": "address"
        }
      ],
      "stateMutability": "view",
      "type": "function"
    },
    {
      "inputs": [],
      "name": "proxiableUUID",
      "outputs": [
        {
          "internalType": "bytes32",
          "name": "",
          "type": "bytes32"
        }
      ],
      "stateMutability": "view",
      "type": "function"
    },
    {
      "inputs": [
        {
          "internalType": "address",
          "name": "beneficiaryAddress",
          "type": "address"
        }
      ],
      "name": "release",
      "outputs": [],
      "stateMutability": "nonpayable",
      "type": "function"
    },
    {
      "inputs": [
        {
          "internalType": "address",
          "name": "",
          "type": "address"
        }
      ],
      "name": "released",
      "outputs": [
        {
          "internalType": "uint256",
          "name": "",
          "type": "uint256"
        }
      ],
      "stateMutability": "view",
      "type": "function"
    },
    {
      "inputs": [],
      "name": "renounceOwnership",
      "outputs": [],
      "stateMutability": "nonpayable",
      "type": "function"
    },
    {
      "inputs": [
        {
          "internalType": "address",
          "name": "_token",
          "type": "address"
        }
      ],
      "name": "setToken",
      "outputs": [],
      "stateMutability": "nonpayable",
      "type": "function"
    },
    {
      "inputs": [],
      "name": "token",
      "outputs": [
        {
          "internalType": "address",
          "name": "",
          "type": "address"
        }
      ],
      "stateMutability": "view",
      "type": "function"
    },
    {
      "inputs": [
        {
          "internalType": "address",
          "name": "newOwner",
          "type": "address"
        }
      ],
      "name": "transferOwnership",
      "outputs": [],
      "stateMutability": "nonpayable",
      "type": "function"
    },
    {
      "inputs": [
        {
          "internalType": "address",
          "name": "newImplementation",
          "type": "address"
        }
      ],
      "name": "upgradeTo",
      "outputs": [],
      "stateMutability": "nonpayable",
      "type": "function"
    },
    {
      "inputs": [
        {
          "internalType": "address",
          "name": "newImplementation",
          "type": "address"
        },
        {
          "internalType": "bytes",
          "name": "data",
          "type": "bytes"
        }
      ],
      "name": "upgradeToAndCall",
      "outputs": [],
      "stateMutability": "payable",
      "type": "function"
    },
    {
      "inputs": [
        {
          "internalType": "address",
          "name": "beneficiaryAddress",
          "type": "address"
        },
        {
          "internalType": "uint64",
          "name": "timestamp",
          "type": "uint64"
        }
      ],
      "name": "vestedAmount",
      "outputs": [
        {
          "internalType": "uint256",
          "name": "",
          "type": "uint256"
        }
      ],
      "stateMutability": "view",
      "type": "function"
    }
  ],
  "bytecode": "0x60a06040523060805234801561001457600080fd5b5061001d610022565b6100e2565b600054610100900460ff161561008e5760405162461bcd60e51b815260206004820152602760248201527f496e697469616c697a61626c653a20636f6e747261637420697320696e697469604482015266616c697a696e6760c81b606482015260840160405180910390fd5b60005460ff90811610156100e0576000805460ff191660ff9081179091556040519081527f7f26b83ff96e1f2b6a682f133852f6798a09c465da95921460cefb38474024989060200160405180910390a15b565b608051611bf361011960003960008181610588015281816105c801528181610668015281816106a801526107370152611bf36000f3fe6080604052600436106101095760003560e01c80638da5cb5b11610095578063cdce101b11610064578063cdce101b146102e5578063d0ab3d3214610312578063f2fde38b14610332578063f70a433f14610352578063fc0c546a1461037f57600080fd5b80638da5cb5b1461020b5780639852595c1461023d578063b36760a31461026a578063b9f0bf66146102b857600080fd5b80634f1ef286116100dc5780634f1ef2861461019957806352d1902d146101ac578063715018a6146101c1578063810ec23b146101d65780638129fc1c146101f657600080fd5b80630dca59c11461010e578063144fa6d71461013757806319165587146101595780633659cfe614610179575b600080fd5b34801561011a57600080fd5b5061012460ce5481565b6040519081526020015b60405180910390f35b34801561014357600080fd5b50610157610152366004611746565b61039f565b005b34801561016557600080fd5b50610157610174366004611746565b610468565b34801561018557600080fd5b50610157610194366004611746565b61057d565b6101576101a73660046117ec565b61065d565b3480156101b857600080fd5b5061012461072a565b3480156101cd57600080fd5b506101576107dd565b3480156101e257600080fd5b506101246101f1366004611864565b6107f1565b34801561020257600080fd5b5061015761081d565b34801561021757600080fd5b506033546001600160a01b03165b6040516001600160a01b03909116815260200161012e565b34801561024957600080fd5b50610124610258366004611746565b60ca6020526000908152604090205481565b34801561027657600080fd5b506102a0610285366004611746565b60cc602052600090815260409020546001600160401b031681565b6040516001600160401b03909116815260200161012e565b3480156102c457600080fd5b506101246102d3366004611746565b60c96020526000908152604090205481565b3480156102f157600080fd5b50610124610300366004611746565b60cb6020526000908152604090205481565b34801561031e57600080fd5b5061015761032d366004611897565b610935565b34801561033e57600080fd5b5061015761034d366004611746565b610d57565b34801561035e57600080fd5b5061037261036d366004611746565b610dcd565b60405161012e9190611948565b34801561038b57600080fd5b5060cf54610225906001600160a01b031681565b6103a7610e67565b6001600160a01b0381166103f95760405162461bcd60e51b8152602060048201526014602482015273151bdad95b8818d85b9b9bdd081899481b9d5b1b60621b60448201526064015b60405180910390fd5b60cf546001600160a01b0316156104465760405162461bcd60e51b8152602060048201526011602482015270151bdad95b88185b1c9958591e481cd95d607a1b60448201526064016103f0565b60cf80546001600160a01b0319166001600160a01b0392909216919091179055565b6001600160a01b038116600090815260ca602052604081205461048b83426107f1565b6104959190611991565b9050600081116104de5760405162461bcd60e51b81526020600482015260146024820152734e6f20746f6b656e7320746f2072656c6561736560601b60448201526064016103f0565b6001600160a01b038216600090815260ca6020526040812080548392906105069084906119a8565b925050819055508060ce600082825461051f9190611991565b90915550506040518181526001600160a01b038316907fc0e523490dd523c33b1878c9eb14ff46991e3f5b2cd33710918618f2a39cba1b9060200160405180910390a260cf54610579906001600160a01b03168383610ec1565b5050565b306001600160a01b037f00000000000000000000000000000000000000000000000000000000000000001614156105c65760405162461bcd60e51b81526004016103f0906119c0565b7f00000000000000000000000000000000000000000000000000000000000000006001600160a01b031661060f600080516020611b77833981519152546001600160a01b031690565b6001600160a01b0316146106355760405162461bcd60e51b81526004016103f090611a0c565b61063e81610f18565b6040805160008082526020820190925261065a91839190610f20565b50565b306001600160a01b037f00000000000000000000000000000000000000000000000000000000000000001614156106a65760405162461bcd60e51b81526004016103f0906119c0565b7f00000000000000000000000000000000000000000000000000000000000000006001600160a01b03166106ef600080516020611b77833981519152546001600160a01b031690565b6001600160a01b0316146107155760405162461bcd60e51b81526004016103f090611a0c565b61071e82610f18565b61057982826001610f20565b6000306001600160a01b037f000000000000000000000000000000000000000000000000000000000000000016146107ca5760405162461bcd60e51b815260206004820152603860248201527f555550535570677261646561626c653a206d757374206e6f742062652063616c60448201527f6c6564207468726f7567682064656c656761746563616c6c000000000000000060648201526084016103f0565b50600080516020611b7783398151915290565b6107e5610e67565b6107ef600061109a565b565b6001600160a01b038216600090815260c96020526040812054610816908490846110ec565b9392505050565b600054610100900460ff161580801561083d5750600054600160ff909116105b806108575750303b158015610857575060005460ff166001145b6108ba5760405162461bcd60e51b815260206004820152602e60248201527f496e697469616c697a61626c653a20636f6e747261637420697320616c72656160448201526d191e481a5b9a5d1a585b1a5e995960921b60648201526084016103f0565b6000805460ff1916600117905580156108dd576000805461ff0019166101001790555b6108e56111c5565b6108ed6111f4565b801561065a576000805461ff0019169055604051600181527f7f26b83ff96e1f2b6a682f133852f6798a09c465da95921460cefb38474024989060200160405180910390a150565b61093d610e67565b6001600160a01b0385166109a65760405162461bcd60e51b815260206004820152602a60248201527f56657374696e6757616c6c65743a2062656e6566696369617279206973207a65604482015269726f206164647265737360b01b60648201526084016103f0565b6309450c00846001600160401b031610610a1c5760405162461bcd60e51b815260206004820152603160248201527f56657374696e6757616c6c65743a206475726174696f6e206d757374206265206044820152706c657373207468656e203520796561727360781b60648201526084016103f0565b63058fd4008310610a865760405162461bcd60e51b815260206004820152602e60248201527f56657374696e6757616c6c65743a20636c696666206d757374206265206c657360448201526d73207468656e203320796561727360901b60648201526084016103f0565b60008211610aeb5760405162461bcd60e51b815260206004820152602c60248201527f56657374696e6757616c6c65743a20616d6f756e74206d75737420626520677260448201526b06561746572207468656e20360a41b60648201526084016103f0565b8160ce54610af991906119a8565b60cf546040516370a0823160e01b81523060048201526001600160a01b03909116906370a082319060240160206040518083038186803b158015610b3c57600080fd5b505afa158015610b50573d6000803e3d6000fd5b505050506040513d601f19601f82011682018060405250810190610b749190611a58565b1015610be85760405162461bcd60e51b815260206004820152603860248201527f56657374696e6757616c6c65743a206e6f7420656e6f75676820746f6b656e7360448201527f20746f207665737420726571756972656420616d6f756e74000000000000000060648201526084016103f0565b6001600160a01b038516600090815260c9602052604090205415610c6c5760405162461bcd60e51b815260206004820152603560248201527f56657374696e6757616c6c65743a20616c72656164792076657374696e6720666044820152746f722062656e65666963696172794164647265737360581b60648201526084016103f0565b6001600160a01b038516600090815260c96020908152604080832085905560ca909152812055610ca5836001600160401b0342166119a8565b6001600160a01b038616600090815260cb602090815260408083209390935560cc8152828220805467ffffffffffffffff19166001600160401b03891617905560cd81529190208251610cfa92840190611691565b508160ce6000828254610d0d91906119a8565b90915550506040518281526001600160a01b038616907f2f5488c5b0350655053f3d00e1693b26a49ecd0242b2c0df881ccda054490d309060200160405180910390a25050505050565b610d5f610e67565b6001600160a01b038116610dc45760405162461bcd60e51b815260206004820152602660248201527f4f776e61626c653a206e6577206f776e657220697320746865207a65726f206160448201526564647265737360d01b60648201526084016103f0565b61065a8161109a565b60cd6020526000908152604090208054610de690611a71565b80601f0160208091040260200160405190810160405280929190818152602001828054610e1290611a71565b8015610e5f5780601f10610e3457610100808354040283529160200191610e5f565b820191906000526020600020905b815481529060010190602001808311610e4257829003601f168201915b505050505081565b6033546001600160a01b031633146107ef5760405162461bcd60e51b815260206004820181905260248201527f4f776e61626c653a2063616c6c6572206973206e6f7420746865206f776e657260448201526064016103f0565b604080516001600160a01b038416602482015260448082018490528251808303909101815260649091019091526020810180516001600160e01b031663a9059cbb60e01b179052610f1390849061121b565b505050565b61065a610e67565b7f4910fdfa16fed3260ed0e7147f7cc6da11a60208b5b9406d12a635614ffd91435460ff1615610f5357610f13836112ed565b826001600160a01b03166352d1902d6040518163ffffffff1660e01b815260040160206040518083038186803b158015610f8c57600080fd5b505afa925050508015610fbc575060408051601f3d908101601f19168201909252610fb991810190611a58565b60015b61101f5760405162461bcd60e51b815260206004820152602e60248201527f45524331393637557067726164653a206e657720696d706c656d656e7461746960448201526d6f6e206973206e6f74205555505360901b60648201526084016103f0565b600080516020611b77833981519152811461108e5760405162461bcd60e51b815260206004820152602960248201527f45524331393637557067726164653a20756e737570706f727465642070726f786044820152681a58589b195555525160ba1b60648201526084016103f0565b50610f13838383611389565b603380546001600160a01b038381166001600160a01b0319831681179093556040519116919082907f8be0079c531659141344cd1fd0a4f28419497f9722a3daafe3b4186f6b6457e090600090a35050565b6001600160a01b038316600090815260cb60205260408120546001600160401b038316101561111d57506000610816565b6001600160a01b038416600090815260cc602090815260408083205460cb90925290912054611155916001600160401b0316906119a8565b826001600160401b0316111561116c575081610816565b6001600160a01b038416600090815260cc602090815260408083205460cb909252909120546001600160401b03918216916111a991908516611991565b6111b39085611aac565b6111bd9190611acb565b949350505050565b600054610100900460ff166111ec5760405162461bcd60e51b81526004016103f090611aed565b6107ef6113b4565b600054610100900460ff166107ef5760405162461bcd60e51b81526004016103f090611aed565b6000611270826040518060400160405280602081526020017f5361666545524332303a206c6f772d6c6576656c2063616c6c206661696c6564815250856001600160a01b03166113e49092919063ffffffff16565b805190915015610f13578080602001905181019061128e9190611b38565b610f135760405162461bcd60e51b815260206004820152602a60248201527f5361666545524332303a204552433230206f7065726174696f6e20646964206e6044820152691bdd081cdd58d8d9595960b21b60648201526084016103f0565b6001600160a01b0381163b61135a5760405162461bcd60e51b815260206004820152602d60248201527f455243313936373a206e657720696d706c656d656e746174696f6e206973206e60448201526c1bdd08184818dbdb9d1c9858dd609a1b60648201526084016103f0565b600080516020611b7783398151915280546001600160a01b0319166001600160a01b0392909216919091179055565b611392836113f3565b60008251118061139f5750805b15610f13576113ae8383611433565b50505050565b600054610100900460ff166113db5760405162461bcd60e51b81526004016103f090611aed565b6107ef3361109a565b60606111bd8484600085611527565b6113fc816112ed565b6040516001600160a01b038216907fbc7cd75a20ee27fd9adebab32041f755214dbc6bffa90cc0225b39da2e5c2d3b90600090a250565b60606001600160a01b0383163b61149b5760405162461bcd60e51b815260206004820152602660248201527f416464726573733a2064656c65676174652063616c6c20746f206e6f6e2d636f6044820152651b9d1c9858dd60d21b60648201526084016103f0565b600080846001600160a01b0316846040516114b69190611b5a565b600060405180830381855af49150503d80600081146114f1576040519150601f19603f3d011682016040523d82523d6000602084013e6114f6565b606091505b509150915061151e8282604051806060016040528060278152602001611b9760279139611658565b95945050505050565b6060824710156115885760405162461bcd60e51b815260206004820152602660248201527f416464726573733a20696e73756666696369656e742062616c616e636520666f6044820152651c8818d85b1b60d21b60648201526084016103f0565b6001600160a01b0385163b6115df5760405162461bcd60e51b815260206004820152601d60248201527f416464726573733a2063616c6c20746f206e6f6e2d636f6e747261637400000060448201526064016103f0565b600080866001600160a01b031685876040516115fb9190611b5a565b60006040518083038185875af1925050503d8060008114611638576040519150601f19603f3d011682016040523d82523d6000602084013e61163d565b606091505b509150915061164d828286611658565b979650505050505050565b60608315611667575081610816565b8251156116775782518084602001fd5b8160405162461bcd60e51b81526004016103f09190611948565b82805461169d90611a71565b90600052602060002090601f0160209004810192826116bf5760008555611705565b82601f106116d857805160ff1916838001178555611705565b82800160010185558215611705579182015b828111156117055782518255916020019190600101906116ea565b50611711929150611715565b5090565b5b808211156117115760008155600101611716565b80356001600160a01b038116811461174157600080fd5b919050565b60006020828403121561175857600080fd5b6108168261172a565b634e487b7160e01b600052604160045260246000fd5b60006001600160401b038084111561179157611791611761565b604051601f8501601f19908116603f011681019082821181831017156117b9576117b9611761565b816040528093508581528686860111156117d257600080fd5b858560208301376000602087830101525050509392505050565b600080604083850312156117ff57600080fd5b6118088361172a565b915060208301356001600160401b0381111561182357600080fd5b8301601f8101851361183457600080fd5b61184385823560208401611777565b9150509250929050565b80356001600160401b038116811461174157600080fd5b6000806040838503121561187757600080fd5b6118808361172a565b915061188e6020840161184d565b90509250929050565b600080600080600060a086880312156118af57600080fd5b6118b88661172a565b94506118c66020870161184d565b9350604086013592506060860135915060808601356001600160401b038111156118ef57600080fd5b8601601f8101881361190057600080fd5b61190f88823560208401611777565b9150509295509295909350565b60005b8381101561193757818101518382015260200161191f565b838111156113ae5750506000910152565b602081526000825180602084015261196781604085016020870161191c565b601f01601f19169190910160400192915050565b634e487b7160e01b600052601160045260246000fd5b6000828210156119a3576119a361197b565b500390565b600082198211156119bb576119bb61197b565b500190565b6020808252602c908201527f46756e6374696f6e206d7573742062652063616c6c6564207468726f7567682060408201526b19195b1959d85d1958d85b1b60a21b606082015260800190565b6020808252602c908201527f46756e6374696f6e206d7573742062652063616c6c6564207468726f7567682060408201526b6163746976652070726f787960a01b606082015260800190565b600060208284031215611a6a57600080fd5b5051919050565b600181811c90821680611a8557607f821691505b60208210811415611aa657634e487b7160e01b600052602260045260246000fd5b50919050565b6000816000190483118215151615611ac657611ac661197b565b500290565b600082611ae857634e487b7160e01b600052601260045260246000fd5b500490565b6020808252602b908201527f496e697469616c697a61626c653a20636f6e7472616374206973206e6f74206960408201526a6e697469616c697a696e6760a81b606082015260800190565b600060208284031215611b4a57600080fd5b8151801515811461081657600080fd5b60008251611b6c81846020870161191c565b919091019291505056fe360894a13ba1a3210667c828492db98dca3e2076cc3735a920a3ca505d382bbc416464726573733a206c6f772d6c6576656c2064656c65676174652063616c6c206661696c6564a2646970667358221220241f903aa2123f75e2720dd64ca3f80e88ef89cc2b01d6e8ec4d0ce83f6756fd64736f6c63430008090033",
  "linkReferences": {},
  "deployedLinkReferences": {}
}